:100000000C943B000C944D000C944D000C944D004E
:100010000C944D000C944D000C944D000C944D002C
:100020000C944D000C944D000C944D000C944D001C
:100030000C944D000C944D000C9459000C944D0000
:100040000C944D000C944D000C944D000C944D00FC
:100050000C944D000C944D000C944D000C944D00EC
:100060000C944D000C944D00FB03B103D603270301
:100070006C0311041A0411241FBECFEFD8E0DEBFB9
:10008000CDBF21E0A0E0B1E001C01D92A831B207D0
:10009000E1F70E944F000C9418050C94000080E0DA
:1000A00091E00E947604789480E091E00E94FA0446
:1000B000FBCF1F920F920FB60F9211242F933F93F5
:1000C0004F935F936F937F938F939F93AF93BF9360
:1000D000EF93FF930E940E05FF91EF91BF91AF91B7
:1000E0009F918F917F916F915F914F913F912F9150
:1000F0000F900FBE0F901F901895FC018089878785
:10010000813009F44DC0823009F479C0858986FDBB
:1001100012C0858988237CF085898F7B858B8589B2
:100120008F77858B86898E7F868B86898F7D868B60
:100130005A98108A0895858986FF10C085898F7B1B
:10014000858B85898F77858B86898E7F868B86893F
:100150008F7D868B5A9A81E0808B0895858986FDF4
:100160001FC085898823E4F485898F7B858B8589E9
:100170008F77858B86898E7F868B86898F7D868B10
:100180005A9A88E99AE3948B838B128A118A86891A
:100190008F7D868B86898064868B82E0808B089534
:1001A000858986FF10C085898F7B858B85898F77B0
:1001B000858B86898E7F868B86898F7D868B5A9AE2
:1001C00081E0808B089585898F7B858B85898F77EA
:1001D000858B86898E7F868B86898F7D868B5A9AC2
:1001E00088E99AE3948B838B128A118A86898F7DA2
:1001F000868B86898064868B82E0808B08958589D2
:1002000086FF13C085898F7B858B85898F77858B4A
:1002100086898E7F868B86898F7D868B5A9A868982
:100220008F7B868B81E0808B089585898823E4F419
:1002300085898F7B858B85898F77858B86898E7F56
:10024000868B86898F7D868B5A9A88E99AE3948B70
:10025000838B128A118A86898F7D868B868980643A
:10026000868B82E0808B0895858986FD18C08689FB
:1002700085FD03C0868980FF12C085898F7B858BB1
:1002800085898F77858B86898E7F868B86898F7D02
:10029000868B5A9886898F7B868B108A08958689EB
:1002A00085FD15C0858986FD12C0868980FD0FC039
:1002B00085898F7B858B85898F77858B86898E7FD6
:1002C000868B86898F7D868B5A9A82E0808B0895F3
:1002D000FC0182858187823009F44FC0833009F4A4
:1002E0007AC08130B1F187818087178295899062C9
:1002F000958B811102C012860895833089F028F40D
:10030000813051F0823051F005C0853081F068F0C5
:10031000863079F012860895589A0CC0599A0AC00E
:10032000599885898F7D858B05C0589803C058984A
:1003300001C059988FE090E09687858714861386D0
:100340008689877F868B86898061868B81E082871C
:1003500008958085811105C086898F7E868B1286DF
:100360000895868983FF06C086898F7E868B82E00A
:100370008287089581E0828708958085811102C077
:1003800012860895833089F028F4813051F082304C
:1003900051F005C0853069F050F0863061F012866A
:1003A0000895599A09C0589A07C0589805C0599895
:1003B00003C0599801C058988FE090E096878587D0
:1003C000148613868689877F868B86898061868BD3
:1003D00083E0828708958085811105C086898F7E9C
:1003E000868B12860895868983FF05C086898F7E55
:1003F000868B1286089583E082870895FC018081B0
:100400008D7F808380818E7F808380818B7F8083BE
:100410008081877F808380818F7E808380818F7DB4
:10042000808381818D7F81830895FC01858980FF90
:1004300003C0858981FF0AC0858982FF0AC085893A
:1004400083FB992790F981E08927089581E090E066
:10045000089580E090E00895FC01858980FD03C047
:10046000858981FD08C0858982FD07C0858983FB58
:10047000882780F9089581E0089580E00895FC01BF
:10048000858980FF03C0858981FD08C0858982FF39
:1004900007C0858983FB882780F9089581E0089546
:1004A00080E00895FC01258920FD0DC0258921FDEE
:1004B0000DC0258922FD0DC0858983FB992790F900
:1004C00081E08927089580E090E0089580E090E041
:1004D000089580E090E00895FC01858980FD0BC0BF
:1004E000858981FD0AC0858982FD09C0858983FBD4
:1004F000882780F9089581E0089581E0089581E0DA
:100500000895FC01858980FD03C0858981FF0AC0AB
:10051000858982FD0AC0858983FB992790F981E04E
:100520008927089581E090E0089580E090E00895A3
:10053000FC01258920FD05C0858982FB882780F97B
:10054000089581E00895FC01258921FD05C0858974
:1005500083FB882780F9089581E008950F931F9306
:10056000CF93DF93EC01EA81E9838E2F90E0FC01C9
:100570003197E730F10520F4EC5CFF4F0C94120545
:10058000CE010E945202882361F08D8984FD09C04A
:10059000CE0145960E94FE018E898B7F8E8B1A823A
:1005A0005EC1CE010E945202882391F08D8984FFA2
:1005B0000FC0CE0145960E94FE018D8980688D8B0B
:1005C0008E898E7F8E8B81E08F8386E08A8347C100
:1005D000CE010E9415028823A9F0CE0145960E9403
:1005E000FE018AEF90E09E838D831C821B828E89A0
:1005F0008D7F8E8B8E8984608E8B81E08F8385E0EA
:100600008A832DC1CE010E942C028823A9F0CE013D
:1006100045960E94FE018AEF90E09E838D831C82A6
:100620001B828E898D7F8E8B8E8984608E8B82E07B
:100630008F8384E08A8313C1CE0145960E94FE0118
:100640008E898B7F8E8B1F8281E08A8308C1CE01C9
:100650000E942C02882339F0CE0145960E94FE01AB
:1006600084E08A83FCC0CE010E9452028823C9F034
:100670008E8981FF0BC0CE0145960E94FE018E89B6
:100680008B7F8E8B86E08F831A82E9C0CE014596E0
:100690000E94FE018E898B7F8E8B84E08F831A826D
:1006A000DEC0CE010E943F02882351F0CE01459664
:1006B0000E94FE018E898B7F8E8B82E08A83CFC061
:1006C000CE0145960E94FE018E898B7F8E8B86E03F
:1006D0008F8381E08A83C3C0CE010E9415028823E4
:1006E00039F0CE0145960E94FE0185E08A83B7C0AD
:1006F000CE010E9452028823C9F08E8981FF0BC06F
:10070000CE0145960E94FE018E898B7F8E8B85E0FF
:100710008F831A82A4C0CE0145960E94FE018E8965
:100720008B7F8E8B83E08F831A8299C0CE010E94CB
:100730003F02882351F0CE0145960E94FE018E892A
:100740008B7F8E8B83E08A838AC0CE0145960E9480
:10075000FE018E898B7F8E8B85E08F8381E08A837B
:100760007EC0CE010E94A302882339F0CE014596B7
:100770000E94FE0182E08A8372C0CE010E94810243
:10078000882341F0CE0145960E94FE0184E08F83CC
:100790001A8265C0CE0145960E94FE018E898B7F2C
:1007A0008E8B86E08F8381E08A8359C0CE010E94C0
:1007B0009802882339F0CE0145960E94FE0183E01D
:1007C0008A834DC0CE010E948102882341F0CE0170
:1007D00045960E94FE0183E08F831A8240C0CE01BD
:1007E00045960E94FE018E898B7F8E8B85E08F83DC
:1007F00081E08A8334C08E010B5E1F4F8E898B7F10
:100800008E8BCE010E946C02882331F0C8010E94B9
:10081000FE0181E08A8323C0C8010E94FE011A8282
:100820001EC0CE0145960E94FE0183E08F8387E0C3
:100830008A8315C08D8985FF0CC0CE0145960E9424
:10084000FE018D898F778D8B8E8981608E8B1A82C8
:1008500006C0CE0145960E94FE0187E08A83DF91A3
:10086000CF911F910F9108955898509A5998519A85
:100870005A98529A5D9855985E985698289820985C
:10088000299821985B9853985C9854980895FC0196
:100890004B9B03C085898064858B4C9B03C08589F5
:1008A0008061858B4D9B03C085898160858B4E9BC4
:1008B00003C085898260858B189B03C0858984600D
:1008C000858B199B03C085898860858B089510925C
:1008D000170192E094BD67BD16BCA99AEEE6F0E060
:1008E000908192609083877085BD0895CF93DF9348
:1008F000EC010E9434046CE780E40E9467041982D2
:100900001A821C821B828D898E7F8D8B8D898D7FB3
:100910008D8B8D898B7F8D8B8D89877F8D8B8D893D
:100920008F7E8D8B8D898F7D8D8B8E898D7F8E8B2C
:100930008E898B7F8E8B19861A861C861B861F825A
:100940008E89877F8E8B8E898F7E8E8B1F86188AED
:100950001A8A198A8D898F7B8D8B8D898F778D8BE4
:100960008E898E7F8E8B8E898F7D8E8B8E898F7BED
:100970008E8BDF91CF910895FC0180911701882320
:10098000C1F1868986FF0FC0818992890196928B79
:10099000818B2189328983899489281739071CF032
:1009A00086898062868B868982FF0FC083819481CD
:1009B00001969483838323813481858196812817CE
:1009C00039071CF086898260868B868984FF0FC078
:1009D00083859485019694878387238534858585CF
:1009E0009685281739071CF086898860868B1092B7
:1009F00017010895CF93DF93EC010E944704CE01C5
:100A00000E94BC04CE010E94AE02CE010E947D0075
:100A1000CE010E946801DF91CF91089581E080931B
:100A200017010895EE0FFF1F0590F491E02D099432
:040A3000F894FFCF68
:00000001FF
