:100000000C943B000C944D000C944D000C944D004E
:100010000C944D000C944D000C944D000C944D002C
:100020000C944D000C944D000C944D000C944D001C
:100030000C944D000C944D000C9459000C944D0000
:100040000C944D000C944D000C944D000C944D00FC
:100050000C944D000C944D000C944D000C944D00EC
:100060000C944D000C944D00590503052E056504B4
:10007000B40472057D0511241FBECFEFD8E0DEBFAA
:10008000CDBF21E0A0E0B1E001C01D92AD31B207CB
:10009000E1F70E944F000C9420060C94000080E0D1
:1000A00091E00E94B305789480E091E00E949C0565
:1000B000FBCF1F920F920FB60F9211242F933F93F5
:1000C0004F935F936F937F938F939F93AF93BF9360
:1000D000EF93FF930E94F000FF91EF91BF91AF91DA
:1000E0009F918F917F916F915F914F913F912F9150
:1000F0000F900FBE0F901F9018955898509A5998CE
:10010000519A5A98529A5D9855985E9856982898A0
:100110002098299821985B9853985C985498089552
:1001200010921C0192E094BD67BD16BCA99AEEE640
:10013000F0E0908192609083877085BD0895FC0106
:1001400080911C01882309F44AC0838D80FF0FC071
:10015000858996890196968B858B2589368987892D
:10016000908D281739071CF0828D8068828F828DD0
:1001700082FF0FC0838194810196948383832381BE
:10018000348185819681281739071CF0828D826021
:10019000828F828D84FF0FC083859485019694871A
:1001A00083872385348585859685281739071CF034
:1001B000828D8860828F828D86FF0FC087859089AF
:1001C0000196908B878727853089818992892817A6
:1001D00039071CF0828D8062828F10921C01089575
:1001E00081E080931C010895FC01828D85FFECC0A5
:1001F0004B9B03C0838D86FD05C04B990CC0838D3E
:1002000086FD09C04B9B04C0818D8064818F03C033
:10021000818D8F7B818F4B9B04C0838D8064838F06
:1002200003C0838D8F7B838F4C9B03C0838D85FDA3
:1002300005C04C990CC0838D85FD09C04C9B04C042
:10024000818D8061818F03C0818D8F7E818F4C9BDA
:1002500004C0838D8062838F03C0838D8F7D838FE5
:100260004D9B03C0838D81FD05C04D990CC0838DCE
:1002700081FD09C04D9B04C0818D8160818F03C0C9
:10028000818D8E7F818F4D9B04C0838D8260838F93
:1002900003C0838D8D7F838F4E9B03C0838D82FD32
:1002A00005C04E990CC0838D82FD09C04E9B04C0D1
:1002B000818D8260818F03C0818D8D7F818F4E9B68
:1002C00004C0838D8460838F03C0838D8B7F838F75
:1002D0004D9B03C0838D81FD05C04D990CC0838D5E
:1002E00081FD09C04D9B04C0818D8160818F03C059
:1002F000818D8E7F818F4D9B04C0838D8260838F23
:1003000003C0838D8D7F838F4E9B03C0838D82FDC1
:1003100005C04E990CC0838D82FD09C04E9B04C060
:10032000818D8260818F03C0818D8D7F818F4E9BF7
:1003300004C0838D8460838F03C0838D8B7F838F04
:10034000189B03C0838D83FD05C018990CC0838D55
:1003500083FD09C0189B04C0818D8460818F03C018
:10036000818D8B7F818F189B04C0838D8860838FE4
:1003700003C0838D877F838F199B03C0838D84FD8A
:1003800005C019990CC0838D84FD09C0199B04C058
:10039000818D8860818F03C0818D877F818F199BBC
:1003A00004C0838D8061838F03C0838D8F7E838F94
:1003B000108A17868AE090E0928B818B828D8F7DE8
:1003C000828F828D8064828F0895FC018489838B63
:1003D000813009F444C0823009F46AC0818D86FD01
:1003E0000FC0818D882364F0818D8F77818F828DFE
:1003F0008E7F828F828D8F77828F5A98148A08958C
:10040000818D86FF0DC0818D8F77818F828D8E7F4C
:10041000828F828D8F77828F5A9A81E0848B0895A4
:10042000818D86FD1CC0818D8823CCF4818D8F77D2
:10043000818F828D8E7F828F828D8F77828F5A9A65
:1004400088E893E1908F878B168A158A828D8F7743
:10045000828F838D8160838F82E0848B0895818D6C
:1004600086FF0DC0818D8F77818F828D8E7F828FE9
:10047000828D8F77828F5A9A81E0848B0895818D47
:100480008F77818F828D8E7F828F828D8F77828F03
:100490005A9A88E893E1908F878B168A158A828D05
:1004A0008F77828F838D8160838F82E0848B089524
:1004B000818D86FF10C0818D8F77818F828D8E7F99
:1004C000828F828D8F77828F5A9A838D8E7F838FD2
:1004D00081E0848B0895818D8823CCF4818D8F7782
:1004E000818F828D8E7F828F828D8F77828F5A9AB5
:1004F00088E893E1908F878B168A158A828D8F7793
:10050000828F838D8160838F82E0848B0895818DBB
:1005100086FD15C0828D88231CF0828D80FF0FC060
:10052000818D8F77818F828D8E7F828F828D8F7765
:10053000828F5A98838D8E7F838F148A0895828D3F
:10054000882394F0818D86FD0FC0828D80FD0CC0C4
:10055000818D8F77818F828D8E7F828F828D8F7735
:10056000828F5A9A82E0848B0895FC01828581876C
:10057000823009F44FC0833009F47AC08130B1F180
:10058000878180871782918D9062918F811102C03F
:1005900012860895833089F028F4813051F082303A
:1005A00051F005C0853081F068F0863079F0128610
:1005B0000895589A0CC0599A0AC05998818D8F7D18
:1005C000818F05C0589803C0589801C0599884E19C
:1005D00090E09687858714861386828D877F828F29
:1005E000828D8061828F81E082870895808581116C
:1005F00005C0828D8F7E828F12860895828D83FF43
:1006000006C0828D8F7E828F82E08287089581E08E
:10061000828708958085811102C0128608958330F3
:1006200089F028F4813051F0823051F005C08530D6
:1006300069F050F0863061F012860895599A09C029
:10064000589A07C0589805C0599803C0599801C0D6
:10065000589884E190E09687858714861386828D6A
:10066000877F828F828D8061828F83E08287089569
:100670008085811105C0828D8F7E828F12860895BC
:10068000828D83FF05C0828D8F7E828F12860895B2
:1006900083E082870895FC01818D80FF03C0818DF6
:1006A00081FF0AC0818D82FF0AC0818D83FB99275B
:1006B00090F981E08927089581E090E0089580E035
:1006C00090E00895FC01818D80FD03C0818D81FD46
:1006D00008C0818D82FD07C0818D83FB882780F94A
:1006E000089581E0089580E00895FC01818D80FFE8
:1006F00003C0818D81FD08C0818D82FF07C0818D7F
:1007000083FB882780F9089581E0089580E00895AB
:10071000FC01218D20FD0DC0218D21FD0DC0218DFD
:1007200022FD0DC0818D83FB992790F981E08927F7
:10073000089580E090E0089580E090E0089580E0E2
:1007400090E00895FC01818D80FD0BC0818D81FDBD
:100750000AC0818D82FD09C0818D83FB882780F9C5
:10076000089581E0089581E0089581E00895FC01F5
:10077000818D80FD03C0818D81FF0AC0818D82FD46
:100780000AC0818D83FB992790F981E0892708951C
:1007900081E090E0089580E090E00895FC01218DD3
:1007A00020FD05C0818D82FB882780F9089581E0B6
:1007B0000895FC01218D21FD05C0818D83FB8827D3
:1007C00080F9089581E00895CF93DF93EC01EA81E9
:1007D000E9838E2F90E0FC013197E730F10520F49A
:1007E000EC5CFF4F0C941A06CE010E94880388230C
:1007F00071F0898D84FD0BC0898D8F7D898F8A8DE5
:100800008D7F8A8F8A8D8B7F8A8F1A8292C1CE01CB
:100810000E9488038823A1F0898D84FF11C0898DEF
:100820008F7D898F8A8D8D7F8A8F898D8068898F52
:100830008A8D8E7F8A8F81E08F8386E08A8379C15B
:10084000CE010E944B038823B9F0898D8F7D898F5B
:100850008A8D8D7F8A8F8AEF90E09E838D831C82A4
:100860001B828A8D8D7F8A8F8A8D84608A8F81E03A
:100870008F8385E08A835DC1CE010E946203882355
:10088000B9F0898D8F7D898F8A8D8D7F8A8F8AEFD0
:1008900090E09E838D831C821B828A8D8D7F8A8F40
:1008A0008A8D84608A8F82E08F8384E08A8341C14D
:1008B000898D8F7D898F8A8D8D7F8A8F8A8D8B7FA1
:1008C0008A8F1F8281E08A8334C1CE010E94620335
:1008D000882349F0898D8F7D898F8A8D8D7F8A8FBE
:1008E00084E08A8326C1CE010E9488038823E9F030
:1008F0008A8D81FF0DC0898D8F7D898F8A8D8D7F37
:100900008A8F8A8D8B7F8A8F86E08F831A8211C1AE
:10091000898D8F7D898F8A8D8D7F8A8F8A8D8B7F40
:100920008A8F84E08F831A8204C1CE010E947503EE
:10093000882361F0898D8F7D898F8A8D8D7F8A8F45
:100940008A8D8B7F8A8F82E08A83F3C0898D8F7D29
:10095000898F8A8D8D7F8A8F8A8D8B7F8A8F86E0A3
:100960008F8381E08A83E5C0CE010E944B038823F8
:1009700049F0898D8F7D898F8A8D8D7F8A8F85E063
:100980008A83D7C0CE010E9488038823E9F08A8D2C
:1009900081FF0DC0898D8F7D898F8A8D8D7F8A8F94
:1009A0008A8D8B7F8A8F85E08F831A82C2C0898D62
:1009B0008F7D898F8A8D8D7F8A8F8A8D8B7F8A8F9D
:1009C00083E08F831A82B5C0CE010E94750388230D
:1009D00061F0898D8F7D898F8A8D8D7F8A8F8A8D39
:1009E0008B7F8A8F83E08A83A4C0898D8F7D898FD6
:1009F0008A8D8D7F8A8F8A8D8B7F8A8F85E08F830A
:100A000081E08A8396C0CE010E94D903882349F0F1
:100A1000898D8F7D898F8A8D8D7F8A8F82E08A83F1
:100A200088C0CE010E94B703882351F0898D8F7D45
:100A3000898F8A8D8D7F8A8F84E08F831A8279C017
:100A4000898D8F7D898F8A8D8D7F8A8F8A8D8B7F0F
:100A50008A8F86E08F8381E08A836BC0CE010E94FB
:100A6000CE03882349F0898D8F7D898F8A8D8D7F74
:100A70008A8F83E08A835DC0CE010E94B7038823FA
:100A800051F0898D8F7D898F8A8D8D7F8A8F83E04C
:100A90008F831A824EC0898D8F7D898F8A8D8D7F3D
:100AA0008A8F8A8D8B7F8A8F85E08F8381E08A830E
:100AB00040C08A8D8B7F8A8FCE010E94A20388233B
:100AC00049F0898D8F7D898F8A8D8D7F8A8F81E016
:100AD0008A832FC0898D8F7D898F8A8D8D7F8A8FA4
:100AE0001A8227C0898D8F7D898F8A8D8D7F8A8F0D
:100AF00083E08F8387E08A831CC0898D85FF11C0C6
:100B0000898D84FD0EC0898D8F7D898F8A8D8D7F23
:100B10008A8F898D8F77898F8A8D81608A8F1A82DB
:100B200008C0898D8F7D898F8A8D8D7F8A8F87E020
:100B30008A83DF91CF910895CF93DF93EC010E94D8
:100B40009F00CE010E94F400CE010E94E403CE017A
:100B50000E94E501CE010E94B502DF91CF91089578
:100B60002A98229A0895CF93DF93EC010E94B00552
:100B7000CE010E947D006AEF83E00E949000188AF7
:100B80001F868B8D8D7F8B8F8B8D8B7F8B8F8B8D2E
:100B9000877F8B8F8B8D8F7E8B8F8B8D8F7D8B8FB8
:100BA0008B8D8F7B8B8F8AE090E09A8B898B8A8DDF
:100BB0008F7D8A8F8A8D80648A8F19821A821C8227
:100BC0001B82898D8E7F898F898D8D7F898F898DFD
:100BD0008B7F898F898D877F898F898D8F7E898F84
:100BE000898D8F7D898F8A8D8D7F8A8F8A8D8B7F6E
:100BF0008A8F19861A861C861B861F828A8D877F9C
:100C00008A8F8A8D8F7E8A8F1B8A1C8A1E8A1D8AF4
:100C1000898D8F7B898F898D8F77898F8A8D8E7F44
:100C20008A8F8A8D8F778A8F8B8D8E7F8B8FDF91C6
:100C3000CF910895EE0FFF1F0590F491E02D0994D8
:040C4000F894FFCF56
:00000001FF
