:100000000C943C000C944E000C944E000C944E004A
:100010000C944E000C944E000C944E000C944E0028
:100020000C944E000C944E000C944E000C944E0018
:100030000C944E000C944E000C945A000C944E00FC
:100040000C944E000C944E000C944E000C944E00F8
:100050000C944E000C944E000C944E000C944E00E8
:100060000C944E000C944E00A70613065D062B055B
:100070009F05C606D406E20611241FBECFEFD8E0C6
:10008000DEBFCDBF21E0A0E0B1E001C01D92A232F1
:10009000B207E1F70E9450000C9496070C94000000
:1000A00080E091E00E942107789480E091E00E9436
:1000B0000707FBCF1F920F920FB60F9211242F93B9
:1000C0003F934F935F936F937F938F939F93AF93E0
:1000D000BF93EF93FF930E940301FF91EF91BF91B4
:1000E000AF919F918F917F916F915F914F913F91D0
:1000F0002F910F900FBE0F901F9018955898509AFF
:100100005998519A5A98529A5D9855985E9856986F
:1001100028982098299821985B9853985C9854982F
:1001200008951092210192E094BD67BD16BCA99A72
:10013000EEE6F0E0908192609083877085BD08952F
:10014000FC0180912101882309F45CC0878D82FF26
:100150000FC0818D928D0196928F818F218D328D6E
:10016000838D948D281739071CF0878D8260878FC7
:10017000868D84FF0FC08781908501969087878345
:100180002781308581859285281739071CF0868D57
:100190008860868F868D82FF0FC08381948101964F
:1001A000948383832381348185819681281739073D
:1001B0001CF0868D8260868F868D86FF0FC08785B6
:1001C00090890196908B87872785308981899289CC
:1001D000281739071CF0868D8062868F878D80FFF7
:1001E0000FC0838994890196948B838B23893489EA
:1001F00085899689281739071CF0868D8068868F37
:1002000010922101089581E0809321010895FC015D
:10021000868D88230CF0ECC04B9B03C080A180FD31
:1002200005C04B990CC080A180FD09C04B9B04C048
:10023000858D8064858F03C0858D8F7B858F4B9BDB
:1002400004C080A1816080A303C080A18E7F80A3B1
:100250004C9B03C0878D88232CF04C990CC0878D54
:1002600088234CF04C9B04C0858D8061858F03C032
:10027000858D8F7E858F4C9B04C0878D8068878F8E
:1002800003C0878D8F77878F4D9B03C0878D83FD3C
:1002900005C04D990CC0878D83FD09C04D9B04C0DE
:1002A000858D8160858F03C0858D8E7F858F4D9B69
:1002B00004C0878D8860878F03C0878D877F878F75
:1002C0004E9B03C0878D84FD05C04E990CC0878D61
:1002D00084FD09C04E9B04C0858D8260858F03C05C
:1002E000858D8D7F858F4E9B04C0878D8061878F24
:1002F00003C0878D8F7E878F4D9B03C0878D83FDC5
:1003000005C04D990CC0878D83FD09C04D9B04C06D
:10031000858D8160858F03C0858D8E7F858F4D9BF8
:1003200004C0878D8860878F03C0878D877F878F04
:100330004E9B03C0878D84FD05C04E990CC0878DF0
:1003400084FD09C04E9B04C0858D8260858F03C0EB
:10035000858D8D7F858F4E9B04C0878D8061878FB3
:1003600003C0878D8F7E878F189B03C0878D85FD87
:1003700005C018990CC0878D85FD09C0189B04C065
:10038000858D8460858F03C0858D8B7F858F189BBD
:1003900004C0878D8062878F03C0878D8F7D878F94
:1003A000199B03C0878D86FD05C019990CC0878DE8
:1003B00086FD09C0199B04C0858D8860858F03C0A8
:1003C000858D877F858F199B04C0878D8064878F7B
:1003D00003C0878D8F7B878F148A138A8AE090E011
:1003E000968B858B868D8F77868F878D8160878FA3
:1003F0000895FC01268D23FF03C0268D2F7E268FB6
:100400000895FC01808D878B813009F444C08230CF
:1004100009F46AC0858D86FD0FC0858D882364F040
:10042000858D8F77858F868D8E7F868F878D8D7F4B
:10043000878F5A98108E0895858D86FF0DC0858D03
:100440008F77858F868D8E7F868F878D8D7F878F27
:100450005A9A81E0808F0895858D86FD1CC0858D18
:100460008823CCF4858D8F77858F868D8E7F868FC0
:10047000878D8D7F878F5A9A88E893E1948F838F39
:10048000128E118E878D8D7F878F878D8460878FE9
:1004900082E0808F0895858D86FF0DC0858D8F77D2
:1004A000858F868D8E7F868F878D8D7F878F5A9AD9
:1004B00081E0808F0895858D8F77858F868D8E7FE3
:1004C000868F878D8D7F878F5A9A88E893E1948FE6
:1004D000838F128E118E878D8D7F878F878D84609D
:1004E000878F82E0808F0895858D86FF10C0858D6F
:1004F0008F77858F868D8E7F868F878D8D7F878F77
:100500005A9A878D8B7F878F81E0808F0895858DA4
:100510008823CCF4858D8F77858F868D8E7F868F0F
:10052000878D8D7F878F5A9A88E893E1948F838F88
:10053000128E118E878D8D7F878F878D8460878F38
:1005400082E0808F0895858D86FD15C0878D81FDA1
:1005500003C0868D80FF0FC0858D8F77858F868D38
:100560008E7F868F878D8D7F878F5A98878D8B7F23
:10057000878F108E0895878D81FD12C0858D86FD31
:100580000FC0868D80FD0CC0858D8F77858F868D01
:100590008E7F868F878D8D7F878F5A9A82E0808F9E
:1005A0000895FC0186858587823009F452C0833026
:1005B00009F47DC08130C9F1838584871386958DC8
:1005C0009062958F811102C016860895833089F05C
:1005D00028F4813051F0823051F005C0853099F017
:1005E00068F0863091F016860895589A0FC0599A8F
:1005F0000DC05998858D8F7D858F08C05898858D41
:100600008F7D858F03C0589801C0599889E190E08B
:10061000928B818B108A1786868D8F7D868F868D33
:100620008064868F81E0868708958485811105C066
:10063000868D8F7B868F16860895868D85FF06C0F2
:10064000868D8F7B868F82E08687089581E08687FE
:1006500008958485811102C016860895833089F03B
:1006600028F4813051F0823051F005C0853069F0B6
:1006700050F0863061F016860895599A09C0589A4C
:1006800007C0589805C0599803C0599801C0589898
:1006900082E390E0928B818B108A1786868D8F7D06
:1006A000868F868D8064868F83E086870895848513
:1006B000811105C0868D8F7B868F16860895868D65
:1006C00085FF05C0868D8F7B868F1686089583E013
:1006D00086870895FC01858D80FF03C0858D81FF8D
:1006E0000AC0858D82FF0AC0858D83FB992790F90A
:1006F00081E08927089581E090E0089580E090E00E
:100700000895FC01858D80FD03C0858D81FD08C0A5
:10071000858D82FD07C0858D83FB882780F908952C
:1007200081E0089580E00895FC01858D80FF03C07D
:10073000858D81FD08C0858D82FF07C0858D83FB77
:10074000882780F9089581E0089580E00895FC01EC
:10075000258D20FD0DC0258D21FD0DC0258D22FD8F
:100760000DC0858D83FB992790F981E08927089535
:1007700080E090E0089580E090E0089580E090E0CF
:100780000895FC01858D80FD0BC0858D81FD0AC01B
:10079000858D82FD09C0858D83FB882780F90895AA
:1007A00081E0089581E0089581E00895FC01858D40
:1007B00080FD03C0858D81FF0AC0858D82FD0AC042
:1007C000858D83FB992790F981E08927089581E041
:1007D00090E0089580E090E00895FC01258D20FDD3
:1007E00005C0858D82FB882780F9089581E00895F2
:1007F000FC01258D21FD05C0858D83FB882780F9AF
:10080000089581E00895FC01858D80FF03C0858DEA
:1008100083FD07C0858D82FF06C0858D869581701A
:10082000089581E0089580E00895FC01858D80FFA2
:1008300009C0858D81FF06C0858D83FF03C0858D2E
:1008400082FF0DC0858D82FF0CC0858D83FF0BC09C
:10085000858D81FF0AC0858D80958170089581E026
:10086000089580E0089580E0089580E00895FC01F7
:10087000858D80FF09C0858D81FF06C0858D83FD34
:1008800003C0858D82FD0CC0858D82FF0BC0858DD8
:1008900083FF0AC0858D81FD09C0858D8170089513
:1008A00081E0089580E0089580E0089580E0089553
:1008B000FC01268D24FF07C0868D83FB882780F9E5
:1008C00091E08927089580E090E00895CF93DF9329
:1008D000EC01EA81E9838E2F90E0FC013197E8304A
:1008E000F10520F4EC5CFF4F0C949007CE010E94C0
:1008F000A703882389F08D8D84FD0EC08D8D8F7D9B
:100900008D8F8E8D8D7F8E8F8E8D877F8E8F8E8D2E
:100910008B7F8E8F1A8278C2CE010E94A703882314
:1009200041F18D8D84FF25C0CE010E9458048111B4
:1009300020C08D8D8F7D8D8F8E8D8D7F8E8F8E8D36
:10094000877F8E8F80E197E29A87898718861F823A
:100950008E8D877F8E8F8E8D80618E8F8D8D80683E
:100960008D8F8E8D8E7F8E8F81E08B8786E08A8340
:100970004BC2CE010E94A7038823F9F08D8D84FF1E
:100980001CC0CE010E9458048823B9F08D8D8F7D44
:100990008D8F8E8D8D7F8E8F8E8D877F8E8F8E8D9E
:1009A0008F7E8E8F8D8D80688D8F8E8D8E7F8E8FBA
:1009B00082E08B8787E08A8327C2CE010E946A0388
:1009C0008823D1F08D8D8F7D8D8F8E8D8D7F8E8F35
:1009D0008E8D877F8E8F86E990E09E838D831C822B
:1009E0001B828E8D8D7F8E8F8E8D84608E8F81E0A9
:1009F0008B8785E08A8308C2CE010E948103882309
:100A0000D1F08D8D8F7D8D8F8E8D8D7F8E8F8E8D84
:100A1000877F8E8F86E990E09E838D831C821B8268
:100A20008E8D8D7F8E8F8E8D84608E8F82E08B87F2
:100A300084E08A83E9C18D8D8F7D8D8F8E8D8D7F32
:100A40008E8F8E8D877F8E8F8E8D8B7F8E8F1B8668
:100A500081E08A83D9C1CE010E940304882389F0F2
:100A60008D8D8F7D8D8F8E8D8D7F8E8F8E8D877FDF
:100A70008E8F8E8D8B7F8E8F86E08B8781E08A8331
:100A8000C3C1CE010E948103882361F08D8D8F7DCB
:100A90008D8F8E8D8D7F8E8F8E8D877F8E8F84E054
:100AA0008A83B2C1CE010E94A703882319F18E8DDB
:100AB00081FF10C08D8D8F7D8D8F8E8D8D7F8E8F60
:100AC0008E8D877F8E8F8E8D8B7F8E8F86E08B872E
:100AD0001A829AC18D8D8F7D8D8F8E8D8D7F8E8F99
:100AE0008E8D877F8E8F8E8D8B7F8E8F84E08B8710
:100AF0001A828AC1CE010E949403882379F08D8DD9
:100B00008F7D8D8F8E8D8D7F8E8F8E8D877F8E8F3B
:100B10008E8D8B7F8E8F82E08A8376C18D8D8F7DC7
:100B20008D8F8E8D8D7F8E8F8E8D877F8E8F8E8D0C
:100B30008B7F8E8F86E08B8781E08A8365C1CE01B3
:100B40000E940304882389F08D8D8F7D8D8F8E8D7B
:100B50008D7F8E8F8E8D877F8E8F8E8D8B7F8E8FEC
:100B600085E08B8781E08A834FC1CE010E946A03B2
:100B7000882361F08D8D8F7D8D8F8E8D8D7F8E8FF3
:100B80008E8D877F8E8F85E08A833EC1CE010E9445
:100B9000A703882319F18E8D81FF10C08D8D8F7D65
:100BA0008D8F8E8D8D7F8E8F8E8D877F8E8F8E8D8C
:100BB0008B7F8E8F85E08B871A8226C18D8D8F7DEE
:100BC0008D8F8E8D8D7F8E8F8E8D877F8E8F8E8D6C
:100BD0008B7F8E8F83E08B871A8216C1CE010E9495
:100BE0009403882379F08D8D8F7D8D8F8E8D8D7FF1
:100BF0008E8F8E8D877F8E8F8E8D8B7F8E8F83E0F5
:100C00008A8302C18D8D8F7D8D8F8E8D8D7F8E8F8E
:100C10008E8D877F8E8F8E8D8B7F8E8F85E08B87DD
:100C200081E08A83F1C0CE010E943704882389F0D5
:100C30008D8D8F7D8D8F8E8D8D7F8E8F8E8D877F0D
:100C40008E8F8E8D8B7F8E8F86E08B8781E08A835F
:100C5000DBC0CE010E94F803882361F08D8D8F7D6B
:100C60008D8F8E8D8D7F8E8F8E8D877F8E8F82E084
:100C70008A83CAC0CE010E94D603882369F08D8D75
:100C80008F7D8D8F8E8D8D7F8E8F8E8D877F8E8FBA
:100C900084E08B871A82B8C08D8D8F7D8D8F8E8D6D
:100CA0008D7F8E8F8E8D877F8E8F8E8D8B7F8E8F9B
:100CB00086E08B8781E08A83A7C0CE010E9415045D
:100CC000882389F08D8D8F7D8D8F8E8D8D7F8E8F7A
:100CD0008E8D877F8E8F8E8D8B7F8E8F85E08B871D
:100CE00081E08A8391C0CE010E94ED03882361F0E8
:100CF0008D8D8F7D8D8F8E8D8D7F8E8F8E8D877F4D
:100D00008E8F83E08A8380C0CE010E94D603882321
:100D100069F08D8D8F7D8D8F8E8D8D7F8E8F8E8DD9
:100D2000877F8E8F83E08B871A826EC08D8D8F7D3B
:100D30008D8F8E8D8D7F8E8F8E8D877F8E8F8E8DFA
:100D40008B7F8E8F85E08B8781E08A835DC08E8D5F
:100D50008B7F8E8FCE010E94C103882361F08D8D21
:100D60008F7D8D8F8E8D8D7F8E8F8E8D877F8E8FD9
:100D700081E08A8349C08D8D8F7D8D8F8E8D8D7F93
:100D80008E8F8E8D877F8E8F1A823EC08D8D8F7D48
:100D90008D8F8E8D8D7F8E8F8E8D877F8E8F83E052
:100DA0008B8788E08A8330C08D8D8F7D8D8F8E8D6F
:100DB0008D7F8E8F8E8D877F8E8F84E08B8788E0EE
:100DC0008A8322C08D8D85FF14C08D8D84FD11C056
:100DD0008D8D8F7D8D8F8E8D8D7F8E8F8E8D877F6C
:100DE0008E8F8D8D8F778D8F8E8D81608E8F1A82F5
:100DF0000BC08D8D8F7D8D8F8E8D8D7F8E8F8E8D87
:100E0000877F8E8F88E08A83DF91CF910895CF937B
:100E1000DF93EC010E94A000CE010E940701CE01E9
:100E20000E94F901CE010E946604CE010E940102D7
:100E3000CE010E94D102DF91CF9108952A98229A83
:100E40000895CF93DF93EC010E941E07CE010E940C
:100E50007E006AEF83E00E9491001C8A1B8A8F8DBE
:100E6000877F8F8F8F8D8F7E8F8F8F8D8F7D8F8FD1
:100E70008F8D8F7B8F8F8F8D8F778F8F88A18E7FB8
:100E800088A38AE090E09E8B8D8B8E8D8F778E8FDE
:100E90008F8D81608F8F19821A821C821B82188627
:100EA0001F828D8D8E7F8D8F8D8D8D7F8D8F8D8D02
:100EB0008B7F8D8F8D8D877F8D8F8D8D8F7E8D8F8D
:100EC0008D8D8F7D8D8F8E8D8D7F8E8F8E8D8B7F77
:100ED0008E8F8E8D877F8E8F8E8D8F7E8E8F1D86CF
:100EE0001E86188A1F861B868E8D8F7D8E8F8E8D17
:100EF0008F7B8E8F1F8A188E1A8E198E8D8D8F7B09
:100F00008D8F8D8D8F778D8F8E8D8E7F8E8F8F8D28
:100F10008D7F8F8F8F8D8B7F8F8FDF91CF910895F6
:100F2000EE0FFF1F0590F491E02D0994F894FFCF88
:00000001FF
