:100000000C943B000C944D000C944D000C944D004E
:100010000C944D000C944D000C944D000C944D002C
:100020000C944D000C944D000C944D000C944D001C
:100030000C944D000C944D000C9459000C944D0000
:100040000C944D000C944D000C944D000C944D00FC
:100050000C944D000C944D000C944D000C944D00EC
:100060000C944D000C944D00BA0464048F04C60334
:100070001504D304DE0411241FBECFEFD8E0DEBF89
:10008000CDBF21E0A0E0B1E001C01D92AD31B207CB
:10009000E1F70E944F000C941B060C94000080E0D6
:1000A00091E00E94FD04789480E091E00E940106B6
:1000B000FBCF1F920F920FB60F9211242F933F93F5
:1000C0004F935F936F937F938F939F93AF93BF9360
:1000D000EF93FF930E94F000FF91EF91BF91AF91DA
:1000E0009F918F917F916F915F914F913F912F9150
:1000F0000F900FBE0F901F9018955898509A5998CE
:10010000519A5A98529A5D9855985E9856982898A0
:100110002098299821985B9853985C985498089552
:1001200010921C0192E094BD67BD16BCA99AEEE640
:10013000F0E0908192609083877085BD0895FC0106
:1001400080911C01882309F44AC0838D80FF0FC071
:10015000858996890196968B858B2589368987892D
:10016000908D281739071CF0828D8068828F828DD0
:1001700082FF0FC0838194810196948383832381BE
:10018000348185819681281739071CF0828D826021
:10019000828F828D84FF0FC083859485019694871A
:1001A00083872385348585859685281739071CF034
:1001B000828D8860828F828D86FF0FC087859089AF
:1001C0000196908B878727853089818992892817A6
:1001D00039071CF0828D8062828F10921C01089575
:1001E00081E080931C010895FC01828D85FFE3C0AE
:1001F0004B9B03C0838D86FD05C04B990CC0838D3E
:1002000086FD09C04B9B04C0818D8064818F03C033
:10021000818D8F7B818F4B9B04C0838D8064838F06
:1002200003C0838D8F7B838F4C9B03C0838D85FDA3
:1002300005C04C990CC0838D85FD09C04C9B04C042
:10024000818D8061818F03C0818D8F7E818F4C9BDA
:1002500004C0838D8062838F03C0838D8F7D838FE5
:100260004D9B03C0838D81FD05C04D990CC0838DCE
:1002700081FD09C04D9B04C0818D8160818F03C0C9
:10028000818D8E7F818F4D9B04C0838D8260838F93
:1002900003C0838D8D7F838F4E9B03C0838D82FD32
:1002A00005C04E990CC0838D82FD09C04E9B04C0D1
:1002B000818D8260818F03C0818D8D7F818F4E9B68
:1002C00004C0838D8460838F03C0838D8B7F838F75
:1002D0004D9B03C0838D81FD05C04D990CC0838D5E
:1002E00081FD09C04D9B04C0818D8160818F03C059
:1002F000818D8E7F818F4D9B04C0838D8260838F23
:1003000003C0838D8D7F838F4E9B03C0838D82FDC1
:1003100005C04E990CC0838D82FD09C04E9B04C060
:10032000818D8260818F03C0818D8D7F818F4E9BF7
:1003300004C0838D8460838F03C0838D8B7F838F04
:10034000189B03C0838D83FD05C018990CC0838D55
:1003500083FD09C0189B04C0818D8460818F03C018
:10036000818D8B7F818F189B04C0838D8860838FE4
:1003700003C0838D877F838F199B03C0838D84FD8A
:1003800005C019990CC0838D84FD09C0199B04C058
:10039000818D8860818F03C0818D877F818F199BBC
:1003A00004C0838D8061838F03C0838D8F7E838F94
:1003B000828D8F7D828F0895FC018489838B8130AB
:1003C00009F444C0823009F46AC0818D86FD0FC0F3
:1003D000818D882364F0818D8F77818F828D8E7FD0
:1003E000828F828D8F77828F5A98148A0895818D9B
:1003F00086FF0DC0818D8F77818F828D8E7F828F5A
:10040000828D8F77828F5A9A81E0848B0895818DB7
:1004100086FD1CC0818D8823CCF4818D8F77818FE0
:10042000828D8E7F828F828D8F77828F5A9A88E914
:100430009AE3908F878B168A158A828D8F77828FA9
:10044000838D8160838F82E0848B0895818D86FF08
:100450000DC0818D8F77818F828D8E7F828F828D6F
:100460008F77828F5A9A81E0848B0895818D8F7760
:10047000818F828D8E7F828F828D8F77828F5A9A25
:1004800088E99AE3908F878B168A158A828D8F77F9
:10049000828F838D8160838F82E0848B0895818D2C
:1004A00086FF10C0818D8F77818F828D8E7F828FA6
:1004B000828D8F77828F5A9A838D8E7F838F81E092
:1004C000848B0895818D8823CCF4818D8F77818FE3
:1004D000828D8E7F828F828D8F77828F5A9A88E964
:1004E0009AE3908F878B168A158A828D8F77828FF9
:1004F000838D8160838F82E0848B0895818D86FD5A
:1005000015C0828D88231CF0828D80FF0FC0818DE5
:100510008F77818F828D8E7F828F828D8F77828F72
:100520005A98838D8E7F838F148A0895828D8823B5
:1005300094F0818D86FD0FC0828D80FD0CC0818D71
:100540008F77818F828D8E7F828F828D8F77828F42
:100550005A9A82E0848B0895FC01818D80FF03C04C
:10056000818D81FF0AC0818D82FF0AC0818D83FB4E
:10057000992790F981E08927089581E090E0089516
:1005800080E090E00895FC01818D80FD03C0818DA5
:1005900081FD08C0818D82FD07C0818D83FB882786
:1005A00080F9089581E0089580E00895FC01818D2F
:1005B00080FF03C0818D81FD08C0818D82FF07C04F
:1005C000818D83FB882780F9089581E0089580E07C
:1005D0000895FC01218D20FD0DC0218D21FD0DC050
:1005E000218D22FD0DC0818D83FB992790F981E03B
:1005F0008927089580E090E0089580E090E00895D4
:1006000080E090E00895FC01818D80FD0BC0818D1C
:1006100081FD0AC0818D82FD09C0818D83FB882701
:1006200080F9089581E0089581E0089581E00895BA
:10063000FC01818D80FD03C0818D81FF0AC0818D09
:1006400082FD0AC0818D83FB992790F981E089277B
:10065000089581E090E0089580E090E00895FC0125
:10066000218D20FD05C0818D82FB882780F90895AA
:1006700081E00895FC01218D21FD05C0818D83FB62
:10068000882780F9089581E00895CF93DF93EC01E6
:10069000EA81E9838E2F90E0FC013197E730F10584
:1006A00020F4EC5CFF4F0C941506CE010E94E90289
:1006B000882371F0898D84FD0BC0898D8F7D898F92
:1006C0008A8D8D7F8A8F8A8D8B7F8A8F1A828FC1C8
:1006D000CE010E94E9028823A1F0898D84FF11C018
:1006E000898D8F7D898F8A8D8D7F8A8F898D806896
:1006F000898F8A8D8E7F8A8F81E08F8386E08A83BF
:1007000076C1CE010E94AC028823B9F0898D8F7D1D
:10071000898F8A8D8D7F8A8F8AEF90E09E838D836B
:100720001C821B828A8D8D7F8A8F8A8D84608A8F3E
:1007300081E08F8385E08A835AC1CE010E94C30283
:100740008823B9F0898D8F7D898F8A8D8D7F8A8FDF
:100750008AEF90E09E838D831C821B828A8D8D7F21
:100760008A8F8A8D84608A8F82E08F8384E08A8377
:100770003EC1898D8F7D898F8A8D8D7F8A8F8A8DED
:100780008B7F8A8F1F8281E08A8331C1CE010E94D4
:10079000C302882349F0898D8F7D898F8A8D8D7F53
:1007A0008A8F84E08A8323C1CE010E94E9028823D4
:1007B000E9F08A8D81FF0DC0898D8F7D898F8A8DAB
:1007C0008D7F8A8F8A8D8B7F8A8F86E08F831A82B6
:1007D0000EC1898D8F7D898F8A8D8D7F8A8F8A8DBD
:1007E0008B7F8A8F84E08F831A8201C1CE010E94A1
:1007F000D602882361F0898D8F7D898F8A8D8D7FC8
:100800008A8F8A8D8B7F8A8F82E08A83F0C0898D60
:100810008F7D898F8A8D8D7F8A8F8A8D8B7F8A8F3E
:1008200086E08F8381E08A83E2C0CE010E94AC0221
:10083000882349F0898D8F7D898F8A8D8D7F8A8F5E
:1008400085E08A83D4C0CE010E94E9028823E9F0C2
:100850008A8D81FF0DC0898D8F7D898F8A8D8D7FD7
:100860008A8F8A8D8B7F8A8F85E08F831A82BFC0A3
:10087000898D8F7D898F8A8D8D7F8A8F8A8D8B7FE1
:100880008A8F83E08F831A82B2C0CE010E94D60283
:10089000882361F0898D8F7D898F8A8D8D7F8A8FE6
:1008A0008A8D8B7F8A8F83E08A83A1C0898D8F7D1B
:1008B000898F8A8D8D7F8A8F8A8D8B7F8A8F85E045
:1008C0008F8381E08A8393C0CE010E943A038823FC
:1008D00049F0898D8F7D898F8A8D8D7F8A8F82E007
:1008E0008A8385C0CE010E941803882351F0898D28
:1008F0008F7D898F8A8D8D7F8A8F84E08F831A8286
:1009000076C0898D8F7D898F8A8D8D7F8A8F8A8D24
:100910008B7F8A8F86E08F8381E08A8368C0CE01D7
:100920000E942F03882349F0898D8F7D898F8A8DBE
:100930008D7F8A8F83E08A835AC0CE010E9418037C
:10094000882351F0898D8F7D898F8A8D8D7F8A8F45
:1009500083E08F831A824BC0898D8F7D898F8A8D2A
:100960008D7F8A8F8A8D8B7F8A8F85E08F8381E050
:100970008A833DC08A8D8B7F8A8FCE010E940303BC
:10098000882349F0898D8F7D898F8A8D8D7F8A8F0D
:1009900081E08A832CC0898D8F7D898F8A8D8D7FA0
:1009A0008A8F1A8224C0898D8F7D898F8A8D8D7F51
:1009B0008A8F83E08F8387E08A8319C0898D85FFC2
:1009C0000EC0898D8F7D898F8A8D8D7F8A8F898DCD
:1009D0008F77898F8A8D81608A8F1A8208C0898D6E
:1009E0008F7D898F8A8D8D7F8A8F87E08A83DF91C3
:1009F000CF9108952A98229A0895CF93DF93EC011E
:100A00000E94FA04CE010E947D006AEF83E00E94FA
:100A10009000188A1F868B8D8D7F8B8F8B8D8B7F9F
:100A20008B8F8B8D877F8B8F8B8D8F7E8B8F8B8D1D
:100A30008F7D8B8F8B8D8F7B8B8F8AE090E09A8B55
:100A4000898B8A8D8F7D8A8F8A8D80648A8F1982A7
:100A50001A821C821B82898D8E7F898F898D8D7F62
:100A6000898F898D8B7F898F898D877F898F898DEC
:100A70008F7E898F898D8F7D898F8A8D8D7F8A8FDB
:100A80008A8D8B7F8A8F19861A861C861B861F8209
:100A90008A8D877F8A8F8A8D8F7E8A8F1B8A1C8A98
:100AA0001E8A1D8A898D8F7B898F898D8F77898F8B
:100AB0008A8D8E7F8A8F8A8D8F778A8F8B8D8E7F9E
:100AC0008B8FDF91CF91089595B184E0892785B907
:100AD0000895FC0182858187823009F44FC08330FC
:100AE00009F47AC08130B1F1878180871782918DB6
:100AF0009062918F811102C012860895833089F02F
:100B000028F4813051F0823051F005C0853081F0F9
:100B100068F0863079F012860895589A0CC0599A78
:100B20000AC05998818D8F7D818F05C0589803C068
:100B3000589801C0599884E190E09687858714867B
:100B40001386828D877F828F828D8061828F81E084
:100B5000828708958085811105C0828D8F7E828F66
:100B600012860895828D83FF06C0828D8F7E828FCC
:100B700082E08287089581E08287089580858111CF
:100B800002C012860895833089F028F4813051F034
:100B9000823051F005C0853069F050F0863061F048
:100BA00012860895599A09C0589A07C0589805C0E6
:100BB000599803C0599801C0589884E190E09687ED
:100BC000858714861386828D877F828F828D8061D0
:100BD000828F83E0828708958085811105C0828D90
:100BE0008F7E828F12860895828D83FF07C0828D4B
:100BF0008F7E828F12860E946405089583E082872B
:100C00000895CF93DF93EC010E949F00CE010E94D4
:100C1000F400CE010E944503CE010E94DC01CE010A
:100C20000E946905DF91CF910895EE0FFF1F059097
:0A0C3000F491E02D0994F894FFCF31
:00000001FF
